{
  "contractName": "GoodAuction",
  "abi": [
    {
      "constant": true,
      "inputs": [],
      "name": "getHighestBidder",
      "outputs": [
        {
          "name": "",
          "type": "address"
        }
      ],
      "payable": false,
      "stateMutability": "view",
      "type": "function"
    },
    {
      "constant": false,
      "inputs": [],
      "name": "reduceBid",
      "outputs": [],
      "payable": false,
      "stateMutability": "nonpayable",
      "type": "function"
    },
    {
      "constant": false,
      "inputs": [],
      "name": "withdrawRefund",
      "outputs": [
        {
          "name": "",
          "type": "bool"
        }
      ],
      "payable": false,
      "stateMutability": "nonpayable",
      "type": "function"
    },
    {
      "constant": false,
      "inputs": [],
      "name": "bid",
      "outputs": [
        {
          "name": "",
          "type": "bool"
        }
      ],
      "payable": true,
      "stateMutability": "payable",
      "type": "function"
    },
    {
      "constant": true,
      "inputs": [],
      "name": "getHighestBid",
      "outputs": [
        {
          "name": "",
          "type": "uint256"
        }
      ],
      "payable": false,
      "stateMutability": "view",
      "type": "function"
    },
    {
      "constant": true,
      "inputs": [],
      "name": "getMyBalance",
      "outputs": [
        {
          "name": "",
          "type": "uint256"
        }
      ],
      "payable": false,
      "stateMutability": "view",
      "type": "function"
    },
    {
      "constant": true,
      "inputs": [
        {
          "name": "",
          "type": "address"
        }
      ],
      "name": "refunds",
      "outputs": [
        {
          "name": "",
          "type": "uint256"
        }
      ],
      "payable": false,
      "stateMutability": "view",
      "type": "function"
    },
    {
      "payable": true,
      "stateMutability": "payable",
      "type": "fallback"
    }
  ],
  "bytecode": "0x6060604052341561000f57600080fd5b6106028061001e6000396000f300606060405260043610610082576000357c0100000000000000000000000000000000000000000000000000000000900463ffffffff1680623495a414610087578063057ae235146100dc578063110f8874146100f15780631998aeef1461011e5780634979440a146101405780634c73890914610169578063bc3da53514610192575b600080fd5b341561009257600080fd5b61009a6101df565b604051808273ffffffffffffffffffffffffffffffffffffffff1673ffffffffffffffffffffffffffffffffffffffff16815260200191505060405180910390f35b34156100e757600080fd5b6100ef610208565b005b34156100fc57600080fd5b6101046102e8565b604051808215151515815260200191505060405180910390f35b61012661045e565b604051808215151515815260200191505060405180910390f35b341561014b57600080fd5b61015361056d565b6040518082815260200191505060405180910390f35b341561017457600080fd5b61017c610577565b6040518082815260200191505060405180910390f35b341561019d57600080fd5b6101c9600480803573ffffffffffffffffffffffffffffffffffffffff169060200190919050506105be565b6040518082815260200191505060405180910390f35b60008060009054906101000a900473ffffffffffffffffffffffffffffffffffffffff16905090565b6000809054906101000a900473ffffffffffffffffffffffffffffffffffffffff1673ffffffffffffffffffffffffffffffffffffffff163373ffffffffffffffffffffffffffffffffffffffff1614151561026357600080fd5b60006001541015156102e15760018054036001819055506000809054906101000a900473ffffffffffffffffffffffffffffffffffffffff1673ffffffffffffffffffffffffffffffffffffffff166108fc60019081150290604051600060405180830381858888f1935050505015156102dc57600080fd5b6102e6565b600080fd5b565b600080600260003373ffffffffffffffffffffffffffffffffffffffff1673ffffffffffffffffffffffffffffffffffffffff1681526020019081526020016000205490506000600260003373ffffffffffffffffffffffffffffffffffffffff1673ffffffffffffffffffffffffffffffffffffffff16815260200190815260200160002054141561037e576000915061045a565b6000600260003373ffffffffffffffffffffffffffffffffffffffff1673ffffffffffffffffffffffffffffffffffffffff16815260200190815260200160002054141515610455576000600260003373ffffffffffffffffffffffffffffffffffffffff1673ffffffffffffffffffffffffffffffffffffffff168152602001908152602001600020819055503373ffffffffffffffffffffffffffffffffffffffff166108fc829081150290604051600060405180830381858888f19350505050151561044c57600080fd5b6001915061045a565b600091505b5090565b600060015434111561052157600154600260008060009054906101000a900473ffffffffffffffffffffffffffffffffffffffff1673ffffffffffffffffffffffffffffffffffffffff1673ffffffffffffffffffffffffffffffffffffffff16815260200190815260200160002081905550336000806101000a81548173ffffffffffffffffffffffffffffffffffffffff021916908373ffffffffffffffffffffffffffffffffffffffff160217905550346001819055506001905061056a565b34600260003373ffffffffffffffffffffffffffffffffffffffff1673ffffffffffffffffffffffffffffffffffffffff16815260200190815260200160002081905550600090505b90565b6000600154905090565b6000600260003373ffffffffffffffffffffffffffffffffffffffff1673ffffffffffffffffffffffffffffffffffffffff16815260200190815260200160002054905090565b600260205280600052604060002060009150905054815600a165627a7a72305820945ed43f84919d04e977f4651386ceab84666b04da8752a0c94e07c774e7f5ca0029",
  "source": "pragma solidity 0.4.18;\n\nimport \"./AuctionInterface.sol\";\n\n/** @title GoodAuction */\ncontract GoodAuction is AuctionInterface {\n\n\t/* Keeps track of refunds owed */\n\tmapping(address => uint) public refunds;\n\n    modifier canReduce() {\n        require(msg.sender == highestBidder);\n\t\t_;\n\t}\n\n\n\t/* \tBid function, now shifted to pull paradigm\n\t\tMust return true on successful send and/or bid, bidder\n\t\treassignment. Must return false on failure and\n\t\tallow people to retrieve their funds  */\n\tfunction bid() payable external returns(bool) {\n\t\tif (msg.value > highestBid) {\n\t\t    refunds[highestBidder] = highestBid;\n\t\t    highestBidder = msg.sender;\n\t\t    highestBid = msg.value;\n\t\t    return true;\n\t\t} else {\n            refunds[msg.sender] = msg.value;\n            return false;\n\t    }\n\t}\n\t/*  Implement withdraw function to complete new\n\t    pull paradigm. Returns true on successful\n\t    return of owed funds and false on failure\n\t    or no funds owed.  */\n\tfunction withdrawRefund() external returns(bool) {\n\t    uint refundAmount = refunds[msg.sender];\n\t    if (refunds[msg.sender]\t== 0) {\n\t        return false;\n\t    } else if (refunds[msg.sender] != 0) {\n\t\t    refunds[msg.sender] = 0;\n\t\t    msg.sender.transfer(refundAmount);\n\t        return true;\n\t    } else {\n\t        return false;\n\t    }\n\t}\n\t/*  Allow users to check the amount they are owed\n\t\tbefore calling withdrawRefund(). Function returns\n\t\tamount owed.  */\n\tfunction getMyBalance() external view returns(uint) {\n\t\treturn refunds[msg.sender];\n\t}\n\t/*  Rewrite reduceBid from BadAuction to fix\n\t\tthe security vulnerabilities. Should allow the\n\t\tcurrent highest bidder only to reduce their bid amount */\n\n\tfunction reduceBid() external canReduce {\n\n\t    if (highestBid >= 0) {\n\t        highestBid = highestBid - 1;\n\t        highestBidder.transfer(1);\n\t    } else {\n\t    \trevert();\n\t    }\n\t}\n\n    function getHighestBidder() public view returns (address) {\n\t\treturn highestBidder;\n\t}\n\n\tfunction getHighestBid() public view returns (uint) {\n\t\treturn highestBid;\n\t}\n\n\n\t/* \tgets invoked if somebody calls a\n\t\tfunction that does not exist in this\n\t\tcontract; we send people their money back  */\n\n\tfunction () public payable {\n\t\trevert();\n\t}\n\n}\n",
  "sourcePath": "/Users/Morgan/Documents/BlockchainForDevelopers/sp18-lab03/contracts/GoodAuction.sol",
  "compiler": {
    "name": "solc",
    "version": "0.4.18+commit.9cf6e910.Emscripten.clang"
  },
  "schemaVersion": "1.0.1",
  "updatedAt": "2018-02-27T19:04:25.220Z"
}